:100000000000012079030000610300006303000089
:1000100065030000670300006903000000000000A2
:100020000000000000000000000000006B03000062
:100030006D030000000000006F030000710300006A
:100040007303000073030000350800007303000011
:1000500073030000730300007303000073030000C8
:100060007303000089140000730300007303000091
:1000700073030000730300007303000073030000A8
:100080007303000073030000730300007303000098
:100090007303000073030000730300007303000088
:1000A0007303000073030000730300007303000078
:1000B0007303000073030000000000000000000054
:1000C0007303000073030000730300007303000058
:1000D00073030000730300007303000000000000BE
:1000E0000000000000000000000000000000000010
:1000F0000000000000000000000000000000000000
:1001000000000000000000000000000000000000EF
:1001100000000000000000000000000000000000DF
:1001200000000000000000000000000000000000CF
:1001300000000000000000000000000000000000BF
:1001400000000000000000000000000000000000AF
:10015000000000000000000000000000000000009F
:10016000000000000000000000000000000000008F
:10017000000000000000000000000000000000007F
:10018000000000000000000000000000000000006F
:10019000000000000000000000000000000000005F
:1001A000000000000000000000000000000000004F
:1001B000000000000000000000000000000000003F
:1001C000000000000000000000000000000000002F
:1001D000000000000000000000000000000000001F
:1001E000000000000000000000000000000000000F
:1001F00000000000000000000000000000000000FF
:10020000364937480A1A02D0072291438D463549AC
:1002100035480A1A06D00722914381F30988022241
:1002200082F3148831483249324A00F045F83248A6
:100230003249334A00F040F832483349334A00F03B
:100240003BF833483349344A00F036F833483449F0
:10025000344A00F031F834483449354A00F02CF87B
:1002600034483549354A00F027F8354835490022E9
:1002700000F02DF834483549002200F028F83448C1
:100280003449091A082903DB0022026004300160A6
:10029000314A90471F482049884205D002680430FF
:1002A00003B4904703BCF7E700208646EC460020E5
:1002B00000212A4A9047FEE7884207D0521A05D00B
:1002C000037801300B700131013AF9D1704788424F
:1002D00002D002700130FAE77047000000000120F0
:1002E00000E000200000012000000120302000007C
:1002F0000000002020000020D8030000D8030000E8
:10030000F41E00003020000000000020000000204B
:10031000F41E0000F41E0000F41E0000F41E000095
:10032000F41E0000F41E0000F41E0000F41E000085
:100330002F2000005020000020000020200000207E
:1003400020000020D8030020D8030020D80300207C
:10035000D8030020D8230020A1030000A111000031
:10036000FEE7FEE7FEE7FEE7FEE7FEE7FEE7FEE765
:10037000FEE7FEE7704700BF1048804710484FF087
:100380000701884385460F4880470F48016841F4BC
:1003900070010160BFF34F8FBFF36F8FFFF730BF66
:1003A0000A480B490B4A884207D0521A05D00378F5
:1003B00001300B700131013AF9D17047750300002B
:1003C00000000120751B000088ED00E0F41E000015
:0803D0000000002000000020E5
:1003D8001FB50021039001AA44F20100CDE90111E3
:1003E80000F004F805B05DF804FB000072B6094B94
:1003F8001B68DB0700D500BEBFF34F8F0649074BCC
:10040800CA6802F4E0621343CB60BFF34F8F00BFAA
:10041800FDE700BFF0ED00E000ED00E00400FA05A4
:1004280049B152B1531E1A4007D1826001608380DE
:10043800C260104670470E2070470920704710B5FB
:100448008468C2688388121B934208D3C268134029
:100458000268D154C3680133C360002010BD042072
:10046800FCE78268C3689A420AD08268838813408E
:100478000268D35C0B708368013383600020704787
:10048800052070470648074A03780749D35C0122CC
:1004980013B1043000F00ABE0C3000F0E9BB00BF15
:1004A8000000002058000020480000200648074AA5
:1004B80003780749D35C012213B1043000F0A6BDCC
:1004C8000C3000F07FBB00BF000000205800002067
:1004D8004900002037B50578012D04D035D3022D09
:1004E80028D003B030BD43681F4C19782046FFF769
:1004F800A6FF78B11D4B01908DF800501B68684627
:100508009847A168E368A2885B1A9A420ED3FFF75E
:10051800B9FFE6E7A268E3689A42F2D002AB134A51
:1005280003F8080D126818469047EAE7104B0122B5
:100538001A70D6E7C36801938DF80050FFF7A2FF41
:100548000A4B1B6868469847CBE70A490A48FFF7F1
:1005580088FF10B9FFF7AAFFC3E702A8032300F832
:10056800083D024B1B68EEE7240000202000002015
:10057800340000204900002038000020F0B51F4654
:10058800234B89B006461A600C4600293DD08A885C
:1005980020480968FFF744FF002834D1A289A168E0
:1005A8001D48FFF73DFF00282DD11C4D0FCD6C468F
:1005B8000FC495E80F0084E80F0073690693337C35
:1005C800174A18488DF81C70003318BF01238DF89E
:1005D8001430737C002B14BF0E2300238DF81530C4
:1005E800F3680293B36803933368019369467368A9
:1005F800009300F0DDF830B90B4B18703368013305
:1006080001D0FFF73FFF09B0F0BD0720FBE700BFAF
:10061800200000202400002038000020F41E0000E4
:10062800DD040000000000203400002070B5084CF4
:10063800014608482678FFF714FF054636B100231F
:100648002370FFF71FFF08B1FFF7C2FE284670BDF1
:10065800340000202400002010B501460E48FFF7A2
:10066800EEFE0446A8B90D480D4A0378D35C63B181
:10067800043000F00FFD60B90A490748FFF7F1FEA2
:1006880038B9BDE81040FFF711BF0C3000F0E4FAAC
:10069800F1E7204610BD00BF380000200000002010
:1006A800580000204900002072B6024A136801333E
:1006B800136070474C000020034A1368013B136025
:1006C80003B962B6704700BF4C000020FFF7ECBFCB
:1006D800FFF7F2BF044B1A5C012393404FF0A0428E
:1006E800C2F80835704700BF141F000008B5002085
:1006F800FFF7F0FF0120FFF7EDFF0220FFF7EAFF09
:100708000320BDE80840FFF7E5BFC20708B501466A
:100718000CD54FF0A0430322C3F84427C3F8482759
:10072800C3F84C27C3F85027FFF7E0FF8B070AD51B
:100738004FF0A0430C22C3F83427C3F83827C3F876
:100748003C27C3F8402708BD1FB503788DF8003053
:1007580043680193037A8DF80830C3680393054A08
:10076800054B684653F8213052F82110984705B0D8
:100778005DF804FB50000020540000201FB50378EA
:100788008DF800304368019383688DF80830C3689A
:100798000393054A054B684653F8213052F8211057
:1007A800984705B05DF804FB500000205400002075
:1007B800F0B5194B067891F81DE043F82620174B41
:1007C80094460A6943F82620154B03F806E00C46C0
:1007D80007460FCC89B06D460FC594E80F0085E831
:1007E8000F000496BEF1000F0AD0BCF1000F0D4AAD
:1007F800694608BF0022381D00F040FB09B0F0BD73
:10080800BCF1000F084A694608BF002207F10C0036
:1008180000F018F9F2E700BF540000205000002053
:10082800580000205107000085070000014B1B6895
:10083800184700BF5C00002038B50A4B98420D46A7
:100848000CD10020FFF742FF074B1C7914B9012295
:100858001D601A710020FFF73BFF0CB9002038BD5E
:100868001120FCE7002000405C00002000234350DA
:1008780082B043580193019B02B070470A4610B5F5
:100888004FF48E71FFF7F2FF136A9168C95C136A1F
:1008980001331362C0F81C1510BD024608B54FF4A9
:1008A80092710068FFF7E2FF4FF484711068FFF758
:1008B800DDFF136801221A6008BD8B690A4610B56E
:1008C8004FF4847123B9FFF7D1FFD0F8183510BD64
:1008D800FFF7CCFF536AD168D0F81805C854536A9B
:1008E80001335362F3E700001FB501238DF8003090
:1008F800044BCDE90110D3E900126846904705B0D2
:100908005DF804FB6400002030B54C4AD2F804338B
:1009180013F4007F85B015464FD0D2F82431002B50
:100928004BD04FF492711046FFF7A0FF4FF40173BC
:10093800C2F80833424B93F8291009B901215160D4
:100948003E4902228DF80020D1F88024C1F8802485
:1009580003929A690292DA6801920022C3E9062298
:100968006846D3E9001290473448D0F81C315BB18F
:1009780033490A6A4B699A420A464BD291F82830A1
:10098800002B47D1FFF77AFF2C4AD2F8443193B1B4
:100998004FF4A2711046FFF769FF294B93F829100D
:1009A80009B1012111609A692AB100229A61586A35
:1009B800D968FFF799FF05B030BDD5F804335B0758
:1009C800D2D5D5F80831002BCED01D4C1B48214676
:1009D800FFF773FF636AA2699A422346C4D1E269AA
:1009E800E1684AB12369E3600023606AA261E361B8
:1009F8006362FFF779FFB7E794F829200AB9012263
:100A08006A600E4A4FF40170C2F8080300229A6126
:100A1800586AEEE74FF48E710848FFF727FF5169CF
:100A28000029B1D00023029191688DF8003001911E
:100A380053616846D2E900139847A5E700200040B3
:100A4800640000202DE9F8435A4B047991462C2282
:100A580002FB0432064692F82A200D469846002AE0
:100A680040F0A38054490068FFF7E6FE07460028D7
:100A780040F09D8029683368481C0BD04FF0A04097
:100A880001228A40C0F8082501F5E0724FF0030CF6
:100A980040F822C06868421C1FBF00F5E0724FF0A2
:100AA800A04C4FF0000E4CF822E0AA6995F814C04B
:100AB800C3F824256A7DBCF1010F4CEA0202C3F891
:100AC8006C25C3F81405C3F80C151DD1AA68511C70
:100AD8001FBF02F5E0714FF0A0404FF0000C40F846
:100AE80021C0E968481C0BD04FF0A04C0120884079
:100AF800CCF8080501F5E0704FF0030E4CF820E043
:100B0800C3F80815C3F810252C23634308EB030228
:100B1800C2F804902A6948F80320B9F1000F31D0CF
:100B28004FF48E7130682D7FFFF7A0FE30684FF4C8
:100B3800A271FFF79BFE3268204BC2F80433120BF8
:100B480053B2002BA8BF03F160404FEA53134FEA9A
:100B58004511BABF1A4802F00F0500F561404FEA87
:100B68008303C9B203F16043B4BF415580F8001351
:100B780003F5614302F01F02012101FA02F2C3F8F2
:100B880080211A6033680422C3F800252C2303FB54
:100B980004830022C3E9062283F829205A6101222E
:100BA80083F82A203846BDE8F8830827FAE7112792
:100BB800F8E700BF6400002011090000800002006F
:100BC80014ED00E02DE9F843224F06794FF02C0987
:100BD80009FB067480466569002D37D16261A16002
:100BE80025624FF48E71006884F82850FFF73EFEA6
:100BF800D8F80000012383602146FFF73FFE6368B1
:100C0800A1462BBBD8F80050226A63699A4212D3D6
:100C1800D8F80030D3F81C21002AFBD00122DA6072
:100C280000202C2303FB067600237361BDE8F883BC
:100C380094F8283043B9D5F81C31002BF8D0494630
:100C48002846FFF71BFEDFE70F20EAE71120EDE754
:100C58002846EBE7640000200379044A2C2101FBB5
:100C680003235869003018BF012070476400002032
:100C78002DE9F843384E05792C2303FB0563074615
:100C88005C6824B103684FF40170C3F808032C238F
:100C980003FB0563986950B1D86900283ED024B198
:100CA8003B684FF40172C3F80423112034E09A61C1
:100CB800D9605862D8612C2303FB056393F8293067
:100CC8001BB910B93846FFF7E8FD4FF02C0909FBAE
:100CD80005683868D8F80430002B34D14FF4A27175
:100CE800FFF7C4FDC1463868D0F82431D0F8082190
:100CF800D0F84441B2B90CB9002BF4D02C2202FB35
:100D080005650022AA611BBB24BB95F829103B6826
:100D18000122B1B11A600020BDE8F8831961DA61D7
:100D28000120C8E7002BE9D1002CE7D14946FFF79D
:100D3800C4FDD8F82430D8F818209A42D3D82346CE
:100D4800DCE75A60E7E74FF40173C0F80433E2E7E1
:100D58000320E1E70F20DFE7640000200023435071
:100D680082B043580193019B02B070471FB501231D
:100D78008DF80030054B8DF8080001916846D3E9DD
:100D88000012904705B05DF804FB00BF90000020FA
:100D98007FB5384AD2F82461002E49D010464FF466
:100DA8009271FFF7DBFF02238DF80030D2F8803410
:100DB800C2F880340393D2F83C358DF808302E4BB6
:100DC800DA6801920022C3E906226846D3E90012D4
:100DD8009047284AD2F8443173B14FF4A2711046B3
:100DE800FFF7BCFF244B996931B100219961D2F812
:100DF8003C05D968FFF7BAFF1E4AD2F82031ABB1DB
:100E08004FF490711046FFF7A9FF1B4B596969B160
:100E1800D2F84C158DF80810002299688DF800203A
:100E280001915A616846D3E90012904704B070BD39
:100E3800D2F81031002BCCD04FF488711046FFF750
:100E48008DFF0D4BD2F83C0599698842C1D1DC6908
:100E5800D96864B1D2F8005225F02005C2F80052D2
:100E68001A699C61DA60DE61FFF780FFB1E79C6177
:100E7800FAE700BF00200040900000202DE9F84369
:100E88005E4B06799146242202FB0632044692F80C
:100E980020200D469846002A40F0AB80584900684B
:100EA800FFF7CAFC0746002840F0A5802968236898
:100EB800481C0BD04FF0A04001228A40C0F80825FA
:100EC80001F5E0724FF0030C40F822C06868421C3C
:100ED8001FBF00F5E0724FF0A04C4FF0000E4CF829
:100EE80022E0AA6995F814C0C3F824256A7DBCF1EC
:100EF800010F4CEA0202C3F86C25C3F80C15C3F8BD
:100F080014051DD1AA68511C1FBF02F5E0714FF0EE
:100F1800A0404FF0000C40F821C0E968481C0BD0F5
:100F28004FF0A04C01208840CCF8080501F5E0708E
:100F38004FF0030E4CF820E0C3F80815C3F810254D
:100F48002423734308EB0302C2F804902A6948F883
:100F58000320B9F1000F3BD04FF4887120682D7F32
:100F6800FFF7FCFE4FF490712068FFF7F7FE4FF48F
:100F780092712068FFF7F2FE20684FF4A271FFF724
:100F8800EDFE22681F4BC2F80433120B53B2002B3C
:100F9800A8BF03F160404FEA53134FEA4511BABFA7
:100FA800194802F00F0500F561404FEA8303C9B202
:100FB80003F16043B4BF415580F8001303F5614362
:100FC80002F01F02012101FA02F2C3F880211A601F
:100FD80023680822C3F80025242303FB0683002284
:100FE800C3E906225A61012283F820203846BDE869
:100FF800F8830827FAE71127F8E700BF90000020D8
:10100800990D00001003020014ED00E001F06043A8
:10101800B3F1005F2DE9F041074632D11C4B067948
:10102800242505FB063598466C6964BB6A61A9608E
:1010380000684FF49071FFF791FE4FF4AC71386877
:10104800FFF78CFE3B686A69A968C3F84415C3F8C2
:10105800482501229A606A68BAB9D3F82011D3F8F2
:10106800582149B9002AF8D00F20242303FB06860B
:1010780000237361BDE8F081002A14BF0F2000200F
:10108800F3E71020F6E71120F4E72046F2E700BF67
:10109800900000200379044A242101FB03235869A6
:1010A800003018BF0120704790000020F8B501F00B
:1010B8006043B3F1005F04460F465ED10379304DBB
:1010C800242101FB0351486820B121684FF40476BC
:1010D800C1F80863242101FB03539E6956B1D969FD
:1010E800002939D020B123684FF40472C3F80423CF
:1010F800112030E09A61DF60DE614FF4887120686A
:10110800FFF72CFE4FF4A2712068FFF727FE236833
:10111800C3F83475C3F8382516BB01221A60227942
:10112800242101FB0251496809BBD3F81041D3F8C7
:101138004411D3F8240114B909B90028F5D024239F
:1011480003FB02550023984214BF03201846994216
:10115800AB6118BF0F20F8BD1F61DA610126CCE72B
:10116800D3F8002242F02002C3F80022D7E74FF458
:101178000472C3F804230020EDE71020EBE700BF5A
:10118800900000200378022B02D14068FFF720B9B5
:10119800012BFAD070470000F0B52E4D8BB001201E
:1011A800FFF7B3FA0FCD04AC0FC495E803002A4B40
:1011B8002A4A00934FF4807384E80300CDE90223A0
:1011C8000193274A0723694604A8FFF7D7F908B10E
:1011D800FFF7FEF800F098F90646B0BB054604464E
:1011E80000F0E0F907466846FFF720FA0028F7D133
:1011F8009DF800301CB91D023E460124F0E706F1B7
:101208001502BA4202D21D023E46E9E71D4305F027
:101218000303C5F38502C5F30521C5F38F3000F03C
:10122800C3FA04A800F082FA04460028D8D09DF832
:101238001100FFF711FA0028F9D19DF81000FFF707
:101248000BFA0028F9D10446CAE74FF0FF300BB07B
:10125800F0BD00BF181F0000B4000020B40100203A
:101268008D1100000C4B0322C3F80825A3F5F033B9
:101278000022C3F80022C3F8102101221A61D3F812
:101288001021002AFBD00022C3F810215A601A60EE
:10129800024B1A80704700BF00F00140D0030020C5
:1012A80008B500F0D7FB0B4B01210022C3F8081545
:1012B800C3F81025C3F81425FFF7D4FF064B19709F
:1012C800064B1B782BB1064B4FF400721A60C3F81B
:1012D800802108BD00F00140D2030020B4020020A4
:1012E80000E100E038B51D4C1D4D2178286800F05C
:1012F800BBFB20B11B4B01221A80042038BDFFF72D
:10130800B1FF194B2A78C3F80C252278C3F81025A9
:10131800D3F8241521F0FF01C3F82415D3F82415B8
:1013280041F07101C3F824151049C3F81C15033A9C
:101338000121C3F83015012A40F20311C3F82C0526
:10134800C3F8341506D80A4A1278120642F4847291
:10135800C3F81425074AC3F81825CFE7140000205E
:10136800D4030020BC020020001000400029417670
:10137800BF020020FF0003000F49104A0B6823F04A
:10138800004398B123F0FF0343F0004343F07D038B
:101398000B60136823F0004323F0700343F000430D
:1013A80043F060031360064B187070470B601368B6
:1013B80023F00043F6E700BF3C1700407C170040CD
:1013C800D303002038B5044600F044FB194B40F223
:1013D8005B62C3F83825184AC3F83C25174A1268D7
:1013E80052000232C3F80825154AC3F80425002222
:1013F800C3F800210322C3F800221D46114A54B144
:10140800137813B10120FFF7B7FF0023C5F80C319B
:1014180001236B6038BD0C490978C3F80C151378A3
:10142800002BF7D0094B0122DA605A60C3F840411B
:10143800F0E700BF0010004055555500CC030020D0
:10144800C8020020B4020020D4030020009000400D
:10145800024A0123136042F8083C704740100040DC
:10146800064B0022C3F81C2101225A61D3F81C2123
:10147800002AFBD0D3F84805C0B2704700100040DE
:101488001E4BD3F8403110B5ABB1FFF7E9FF1C4B49
:101498001B782BB35F2802D90020FFF76DFF174B8D
:1014A80042F21072C3F84025002101225A60DA6026
:1014B800C3F840111A60114CD4F8443163B1FFF7F6
:1014C800CFFF5F288CBF00200120FFF755FF0023C6
:1014D800C4F84435C4F84431BDE81040FFF7B8BF3C
:1014E800084B1B689AB20F2A04D9B3F5003F01D202
:1014F8000120D2E75E28FBD9D1E700BF0090004069
:10150800D30300207415004038B54FF08043002203
:10151800C3F8002101221A60D3F80021002AFBD069
:101528001A4B1B68002201244FF480315C600425AB
:10153800DC60C3F80425C3F84021C3F84421C3F88C
:101548004821C3F84C21C3F8041340F6C411C3F86A
:101558000042C3F81055C3F840154FF48271C3F820
:1015680044151C600A4B1A60FFF7BCFE58B9094BBA
:10157800094A1870094B1C70094B1860136943F02D
:101588001003136138BD2846FCE700BF180000208F
:10159800B8020020BE02002000ED00E0D2030020C7
:1015A800C0020020534A136970B543F01003524C2F
:1015B800524D1361D4F80C31002B3ED02B78504A91
:1015C80000210220042BC4F80C11C2F880015AD162
:1015D8004C4B1B780122626073B14B4B42F2107086
:1015E800C3F840054FF4FA70C3F84405DA60C3F84D
:1015F8004011C3F844111A60D4F80034012B16D1F5
:101608004248434900780B784A780338012803F0A8
:101618000F0301D8022B0AD8002B3DD13D493E4883
:1016280000F0D2FB18B93D4A13880133138040F209
:1016380001120021364800F026FC2B78042B22D119
:10164800D4F804312BB12F4B1B7813B12E4B012248
:101658001A61D4F80031B3B12A4B1B789BB1FFF75C
:10166800FFFE5F2802D90020FFF786FE264B42F2D4
:101678001072C3F8402500210122DA60C3F8401136
:101688001A60FFF7E5FE264B1B68D3F84021C2B16C
:101698000022C3F840218DE7012B0ED0022B0ED07B
:1016A800032BC4D1FF200023DEB2B242BBD90133E1
:1016B800CE1876788642F7D0B9E70F20F3E75520A1
:1016C800F1E7D3F8441100293FF474AFC3F844217B
:1016D800144B93F9003001215A0903F01F0301FA52
:1016E80003F36032064941F822300F4B1868013085
:1016F800186070BD00ED00E000100040D20300202B
:1017080000E100E0B4020020009000401400002036
:10171800C8020020301F0000CA020020D0030020A9
:101728001800002015000020B8020020044B0021FA
:101738001A781970034B1B8803601046704700BF66
:10174800BE020020BC0200200B4B1B7810F0300FAB
:1017580010B544B218BF64F03F04012B01D9002032
:1017680010BD064B2046197800F07EF90028F6D106
:10177800034B01201C60F3E7D20300201400002073
:10178800D4030020054B1B78012B024603D80449DB
:10179800044800F085B90020704700BFD20300203C
:1017A80015000020180000202DE9F74F054699483C
:1017B800994FDFF898820E46144602683E6098F802
:1017C800007004F03F0102F0C0020A43033F93494E
:1017D8000260012F0B60814603D8032B04BFFF2052
:1017E80008608F48DFF868B24FF0010707708D4F27
:1017F80097F800C00020ABF80000DA46BCF1000FF3
:1018080000F00681002D5ED1FFF74AFD86B924B1AC
:101818000123AAF80030042406E0032388F80030E6
:10182800814BC9F800401C70204603B0BDE8F08F1A
:10183800012E06D1032CEBD8A401C9F800400024DE
:10184800F2E7022E22D1012C0FD0022CE0D1042382
:1018580088F80030744B4FF0010228461A70FFF7E1
:101868008BFD724B01221A6109E0032388F80030CE
:101878006D4B28461D70FFF77FFD6C4B1C616C4B50
:101888001D7003B0BDE8F04FFFF72CBD032E02D149
:10189800012CD4D9BCE7042E05D1002CB8D10623DD
:1018A800ABF80030C0E7052EB2D1032CB0D8DFE882
:1018B80004F0020702074FF4FF73AAF80030BEE7EE
:1018C80044F29023F9E7032D13D1BCF1010F04D1A1
:1018D8000123AAF800300224A6E7564B01901B8882
:1018E8006FEA43436FEA5343ABF80030FFF7D8FC85
:1018F800A5E7BCF1010FEBD1032B05D0272E03D9A7
:10190800ABF800C064468FE74A4B4FF0000B012D3F
:10191800A3F800B00BD140F201125946464800F036
:10192800B2FA2846FFF74EFD04233B7087E7022DE5
:1019380085D10B684048022B427045D009D8A3B125
:10194800012B7FF465AF00F8023B0F2100F09BFAF2
:1019580010E0032B3CD0FF2B7FF45AAF032C3FF64B
:101968006EAFDFE804F03A3A464D00F8023B3349DF
:1019780000F060FA0020FFF725FD98F80010304BC2
:10198800D9F800001A6804293ED0032914BF00239F
:10199800502303EBC003042908BF5B0840F2712100
:1019A800F933994201F2712030D3264BC2F8401521
:1019B80002F5A072C3F81025234AC3F814250122A2
:1019C800C3F804250223B0E700F8025B5521BDE700
:1019D800042300F8023BFF21B8E70020FFF7F2FCE0
:1019E80000F03AF8184B0122C3F800221A600323CA
:1019F8009BE73046FFF7A8FE00287FF420AF07E7F3
:101A08003046FFF7BFFEF7E75823C2E70146C8E7AD
:101A1800052409E7C0020020CC030020C4020020EE
:101A2800BE020020D2030020BF0200200090004028
:101A3800B4020020D0030020C8020020301F00009C
:101A48001800002000F001400010004014000020A1
:101A5800BC02002070470000024B4FF40072C3F82C
:101A68005026704700100040C3B2DA1E012A0CD974
:101A78005BB1EC3B132B04D8084A22FA03F3DB07CB
:101A880003D400F0DF00D82805D10339012994BF19
:101A98000020042070470420704700BF110109008E
:101AA8002AB9104B036008230B7001207047012AE4
:101AB80003D10D4B03600923F6E7022A03D10B4B30
:101AC80003600A23F0E7032A03D1094B03601A23B2
:101AD800EAE7042A03D1074B03601B23E4E700204D
:101AE800704700BF008000400090004000A0004008
:101AF80000A0014000B001400C4B1B78062B10D110
:101B08000B4B1B681A070CD10A4B186800F0F0033E
:101B1800302B08D000F0E000A0F1400358425841B3
:101B28007047002070470120704700BFE00F00F0A9
:101B3800E40F00F0E80F00F0094B1B78062B0CD1DE
:101B4800084B1B681A0708D1074B186800F0F0000B
:101B5800A0F130035842584170470020704700BF39
:101B6800E00F00F0E40F00F0E80F00F008B5FFF711
:101B7800C3FF28B17D4B7E4A1B68C3F3042313605F
:101B8800FFF7DAFF10B17B4B7B4A1A60FFF7B4FF0F
:101B980028B17A4B7A4A1B68C3F342331360FFF7C4
:101BA800CBFF20B1774AD36823F08073D360FFF767
:101BB800A3FF40B14FF080430022C3F80C21C3F8C3
:101BC8001021C3F83825FFF7B7FF10B16E4B032279
:101BD8001A60FFF7B1FF40B16C4B05221A60012271
:101BE8009A6700229A603F225A60694B1B78062B3D
:101BF80050D1684B1B6819074CD1674B1B6803F021
:101C0800F003502B46D14FF08052644BD2F80414A5
:101C1800C3F82015D2F80814C3F82415D2F80C1408
:101C2800C3F82815D2F81014C3F82C15D2F81414D8
:101C3800C3F83015D2F81814C3F83415D2F81C14A8
:101C4800C3F84015D2F82014C3F84415D2F8241468
:101C5800C3F84815D2F82814C3F84C15D2F82C1438
:101C6800C3F85015D2F83014C3F85415D2F8341408
:101C7800C3F86015D2F83814C3F86415D2F83C14C8
:101C8800C3F86815D2F84014C3F86C15D2F8442488
:101C9800C3F87025FFF730FF28B1414B414A1B6854
:101CA80003F04F031360FFF727FF48B14FF080435D
:101CB800D3F80024D20744BF6FF00102C3F8002410
:101CC800394B1B68062B08D1384B1B68062B01BF04
:101CD800374A136843F480631360364AD2F8883071
:101CE80043F47003C2F88830BFF34F8FBFF36F8F90
:101CF8004FF01023D3F80022002A03DBD3F8043274
:101D0800002B2FDA2C4B0122C3F80425D3F800242A
:101D1800002AFBD04FF010221521C2F80012D3F888
:101D28000024002AFBD04FF010231522C3F8042208
:101D3800214B1A46D3F800140029FBD00021C3F820
:101D48000415D2F80034002BFBD0BFF34F8F19498C
:101D58001A4BCA6802F4E0621343CB60BFF34F8F9B
:101D680000BFFDE7164B174A1A6008BD2403001090
:101D78004035014074C007400DF0ADBA4402001070
:101D88003C050040F0ED00E0A00500401056004082
:101D9800E00F00F0E40F00F0E80F00F000C0004092
:101DA80058020010E40E0040300100103401001009
:101DB8003C17004000ED00E000E001400400FA0597
:101DC8001C0000200090D00392B370B4134640EA80
:101DD800010212F0030F17D05A1E10D004780B78A6
:101DE8009C420CD1431C4C1C024418462146934289
:101DF80005D00133013406780D78AE42F5D000786D
:101E08000B78C01A70BC70470F2BE5D904680A68B4
:101E18009442E1D1041D0A1D20461146043B042BBF
:101E2800DAD90434043206680D68AE42F4D0D3E738
:101E380000207047844640EA010313F0030F18D1CD
:101E48008446202A0BD32DE9F007B1E8F807A0E86B
:101E5800F807A2F12002202AF7D2BDE8F007042AE9
:101E680007D351F8043B40F8043BA2F10402042ACA
:101E7800F7D2002A05D011F8013B00F8013B013ADE
:101E8800F9D1604670478446002A2DD010F0030F20
:101E980004D000F8011B013A26D0F7E7C9B241EA9D
:101EA800012141EA0141202A12D3A2F120022DE9A1
:101EB800F0030B460C460D460E460F4688468946EB
:101EC800A0E8FA03203AFBD2BDE8F00320320BD099
:101ED800042A05D340F8041B043A05D0042AF9D291
:0C1EE80000F8011B013AFBD16046704776
:101EF400FFFFFFFFFFFFFFFFFFFFFFFFFFFFFFFFEE
:101F040000000000000000000000D60106010000EF
:101F14001112131408000000060000000500000060
:101F2400070000000000000000A04E00FFC1FBE815
:101F34004C90728BE7B3518963AB232302841872EC
:101F4400AA612F3B51A8E53749FBC9CA0C18532C89
:101F5400FD45E39AE6F15DB0B61BB4BE2A50EAE94A
:101F64000E9C4B5E5724CCA1B759B887FFE07D7413
:101F74002648B9C5F3D9A8C4B1D5911101420C3989
:101F8400D5B0979D28D4F29BA4FD6465068C299650
:101F9400FEA2714DF3F82E58DB0D5A5F1528F57427
:101FA40007CE25AF2B12E6D0DB2CDCC37FF03E3A04
:101FB40013A4DCE2F96C54E2D8EAC8880021869CB8
:101FC4006AD8CB4E146AF94DD27EB23203C6144B92
:101FD4007FD1B8A6797C17ACED06ADAF0A947ABA76
:101FE40003E792D7150973E86D16EEE13F781F9D5C
:101FF40009526EF17C362A716C7564448010434E2C
:1020040035EC65270AB5FC26693F599901638AA511
:10201400BF685CD33CBE0BD67683D657054A3DDDFC
:0B2024008173C9EB8A8439F4360BF796
:1020300000000000002000400000000000200040E0
:102040000000000003080000008000400090D00362
:1060000064746D2D66772D312E302E300000000027
:04000003000003797D
:00000001FF
