:100000000000042079030000610300006303000086
:1000100065030000670300006903000000000000A2
:100020000000000000000000000000006B03000062
:100030006D030000000000006F030000710300006A
:100040007303000073030000450800007303000001
:1000500073030000730300007303000073030000C8
:100060007303000005150000730300007303000014
:1000700073030000730300007303000073030000A8
:100080007303000073030000730300007303000098
:100090007303000073030000730300007303000088
:1000A0007303000073030000730300007303000078
:1000B0007303000073030000000000000000000054
:1000C0007303000073030000730300007303000058
:1000D0007303000073030000730300007303000048
:1000E00073030000730300007303000000000000AE
:1000F0000000000073030000000000007303000014
:1001000000000000000000000000000000000000EF
:1001100000000000000000000000000000000000DF
:1001200000000000000000000000000000000000CF
:1001300000000000000000000000000000000000BF
:1001400000000000000000000000000000000000AF
:10015000000000000000000000000000000000009F
:10016000000000000000000000000000000000008F
:10017000000000000000000000000000000000007F
:10018000000000000000000000000000000000006F
:10019000000000000000000000000000000000005F
:1001A000000000000000000000000000000000004F
:1001B000000000000000000000000000000000003F
:1001C000000000000000000000000000000000002F
:1001D000000000000000000000000000000000001F
:1001E000000000000000000000000000000000000F
:1001F00000000000000000000000000000000000FF
:10020000364937480A1A02D0072291438D463549AC
:1002100035480A1A06D00722914381F30988022241
:1002200082F3148831483249324A00F045F83248A6
:100230003249334A00F040F832483349334A00F03B
:100240003BF833483349344A00F036F833483449F0
:10025000344A00F031F834483449354A00F02CF87B
:1002600034483549354A00F027F8354835490022E9
:1002700000F02DF834483549002200F028F83448C1
:100280003449091A082903DB0022026004300160A6
:10029000314A90471F482049884205D002680430FF
:1002A00003B4904703BCF7E700208646EC460020E5
:1002B00000212A4A9047FEE7884207D0521A05D00B
:1002C000037801300B700131013AF9D1704788424F
:1002D00002D002700130FAE77047000000000420ED
:1002E00000E0032000000420000004207C20000027
:1002F0000000002020000020D8030000D8030000E8
:10030000401F00007C2000000000002000000020B2
:10031000401F0000401F0000401F0000401F000061
:10032000401F0000401F0000401F0000401F000051
:100330007B2000009C2000002000002020000020E6
:1003400020000020E0030020E0030020E003002064
:10035000E0030020E0230020A103000019120000A8
:10036000FEE7FEE7FEE7FEE7FEE7FEE7FEE7FEE765
:10037000FEE7FEE7704700BF1048804710484FF087
:100380000701884385460F4880470F48016841F4BC
:1003900070010160BFF34F8FBFF36F8FFFF730BF66
:1003A0000A480B490B4A884207D0521A05D00378F5
:1003B00001300B700131013AF9D17047750300002B
:1003C00000000420651C000088ED00E0401F0000D4
:0803D0000000002000000020E5
:1003D8001FB50021039001AA44F20100CDE90111E3
:1003E80000F004F805B05DF804FB000072B6094B94
:1003F8001B68DB0700D500BEBFF34F8F0649074BCC
:10040800CA6802F4E0621343CB60BFF34F8F00BFAA
:10041800FDE700BFF0ED00E000ED00E00400FA05A4
:1004280049B152B1531E1A4007D1826001608380DE
:10043800C260104670470E2070470920704710B5FB
:100448008468C2688388121B934208D3C268134029
:100458000268D154C3680133C360002010BD042072
:10046800FCE78268C3689A420AD08268838813408E
:100478000268D35C0B708368013383600020704787
:10048800052070470648074A03780749D35C0122CC
:1004980013B1043000F046BE0C3000F00BBC00BFB6
:1004A8000000002060000020480000200648074A9D
:1004B80003780749D35C012213B1043000F0E2BD90
:1004C8000C3000F0A1BB00BF00000020600000203D
:1004D8004900002037B50578012D04D035D3022D09
:1004E80028D003B030BD43681F4C19782046FFF769
:1004F800A6FF78B11D4B01908DF800501B68684627
:100508009847A168E368A2885B1A9A420ED3FFF75E
:10051800B9FFE6E7A268E3689A42F2D002AB134A51
:1005280003F8080D126818469047EAE7104B0122B5
:100538001A70D6E7C36801938DF80050FFF7A2FF41
:100548000A4B1B6868469847CBE70A490A48FFF7F1
:1005580088FF10B9FFF7AAFFC3E702A8032300F832
:10056800083D024B1B68EEE7240000202000002015
:10057800340000204900002038000020F0B51F4654
:10058800234B89B006461A600C4600293DD08A885C
:1005980020480968FFF744FF002834D1A289A168E0
:1005A8001D48FFF73DFF00282DD11C4D0FCD6C468F
:1005B8000FC495E80F0084E80F0073690693337C35
:1005C800174A18488DF81C70003318BF01238DF89E
:1005D8001430737C002B14BF0E2300238DF81530C4
:1005E800F3680293B36803933368019369467368A9
:1005F800009300F0E5F830B90B4B187033680133FD
:1006080001D0FFF73FFF09B0F0BD0720FBE700BFAF
:10061800200000202400002038000020401F000097
:10062800DD040000000000203400002070B5084CF4
:10063800014608482678FFF714FF054636B100231F
:100648002370FFF71FFF08B1FFF7C2FE284670BDF1
:10065800340000202400002010B501460E48FFF7A2
:10066800EEFE0446A8B90D480D4A0378D35C63B181
:10067800043000F04BFD60B90A490748FFF7F1FE66
:1006880038B9BDE81040FFF711BF0C3000F006FB89
:10069800F1E7204610BD00BF380000200000002010
:1006A800600000204900002072B6024A1368013336
:1006B800136070474C000020034A1368013B136025
:1006C80003B962B6704700BF4C000020FFF7ECBFCB
:1006D800FFF7F2BF074B1B5C1F2B86BF03F01F03FE
:1006E80005494FF0A041012202FA03F3C1F8083589
:1006F800704700BF601F00000003005008B50020CD
:10070800FFF7E8FF0120FFF7E5FF0220FFF7E2FF10
:100718000320BDE80840FFF7DDBFC20710B5044657
:100728000CD54FF0A0430322C3F83427C3F8382769
:10073800C3F83C27C3F84027FFF7E0FFA3070AD513
:100748004FF0A0430C22C3F82C27C3F83027C3F876
:100758006027C3F8642710BD1FB503788DF80030F3
:1007680043680193037A8DF80830C3680393054AF8
:10077800054B684653F8213052F82110984705B0C8
:100788005DF804FB50000020580000201FB50378D6
:100798008DF800304368019383688DF80830C3688A
:1007A8000393054A054B684653F8213052F8211047
:1007B800984705B05DF804FB500000205800002061
:1007C800F0B5194B0678DFF870E043F82620174B90
:1007D80094460A6943F826204B7F0EF806300C46EB
:1007E80007460FCC89B06D460FC594E80F0085E821
:1007F8000F001EF80630049653B1BCF1000F0C4AE6
:10080800694608BF0022381D00F05AFB09B0F0BD48
:10081800BCF1000F074A694608BF002207F10C0027
:1008280000F018F9F2E700BF58000020500000203F
:10083800610700009507000060000020014B1B685D
:10084800184700BF6400002038B50A4B98420D468F
:100858000CD10020FFF73AFF074B1C7914B901228D
:100868001D601A710020FFF733FF0CB9002038BD56
:100878001120FCE7002000406400002000234350C2
:1008880082B043580193019B02B070470A4610B5E5
:100898004FF48E71FFF7F2FF136A9168C95C136A0F
:1008A80001331362C0F81C1510BD024608B54FF499
:1008B80092710068FFF7E2FF4FF484711068FFF748
:1008C800DDFF136801221A6008BD8B690A4610B55E
:1008D8004FF4847123B9FFF7D1FFD0F8183510BD54
:1008E800FFF7CCFF536AD168D0F81805C854536A8B
:1008F80001335362F3E700001FB501238DF8003080
:10090800044BCDE90110D3E900126846904705B0C1
:100918005DF804FB6C00002030B54C4AD2F8043373
:1009280013F4007F85B015464FD0D2F82431002B40
:100938004BD04FF492711046FFF7A0FF4FF40173AC
:10094800C2F80833424B93F8291009B901215160C4
:100958003E4902228DF80020D1F88024C1F8802475
:1009680003929A690292DA6801920022C3E9062288
:100978006846D3E9001290473448D0F81C315BB17F
:1009880033490A6A4B699A420A464BD291F8283091
:10099800002B47D1FFF77AFF2C4AD2F8443193B1A4
:1009A8004FF4A2711046FFF769FF294B93F82910FD
:1009B80009B1012111609A692AB100229A61586A25
:1009C800D968FFF799FF05B030BDD5F804335B0748
:1009D800D2D5D5F80831002BCED01D4C1B48214666
:1009E800FFF773FF636AA2699A422346C4D1E2699A
:1009F800E1684AB12369E3600023606AA261E361A8
:100A08006362FFF779FFB7E794F829200AB9012252
:100A18006A600E4A4FF40170C2F8080300229A6116
:100A2800586AEEE74FF48E710848FFF727FF5169BF
:100A38000029B1D00023029191688DF8003001910E
:100A480053616846D2E900139847A5E700200040A3
:100A58006C0000202DE9F843664B047991462C225E
:100A680002FB0432064692F82A200D469846002AD0
:100A780040F0BC8060490068FFF7E6FE07460028A2
:100A880040F0B68029684A1C10D01F2987BF01F0A2
:100A98001F035A4A0B464FF0A0420120984003F525
:100AA800E073C2F80805032042F823006868431C75
:100AB8000DD01F288BBF00F01F0303464F4A4FF08D
:100AC800A04203F5E0734FF0000C42F823C03368EE
:100AD800AA6995F814C0C3F824256A7DBCF1010FF2
:100AE8004CEA0202C3F86C25C3F81405C3F80C15C8
:100AF8002BD1A968481C0DD01F298BBF01F01F02FC
:100B08000A463E484FF0A04002F5E0724FF0000C54
:100B180040F822C0E868421C13D01F2887BF00F0A5
:100B28001F0C364A84464FF0A0424FF0010E0EFAD1
:100B38000CFE0CF5E07CC2F808E54FF0030E42F815
:100B48002CE0C3F80805C3F810152C23634308EB01
:100B58000302C2F804902A6948F80320B9F1000F8B
:100B680031D04FF48E7130682D7FFFF787FE3068E3
:100B78004FF4A271FFF782FE3268214BC2F80433AA
:100B8800120B53B2002BA8BF03F160404FEA531376
:100B98004FEA4511BABF1B4802F00F0500F5614046
:100BA8004FEA8303C9B203F16043B4BF415580F8EB
:100BB800001303F5614302F01F02012101FA02F25A
:100BC800C3F880211A6033680422C3F800252C2357
:100BD80003FB04830022C3E9062283F829205A6113
:100BE800012283F82A203846BDE8F8830827FAE767
:100BF8001127F8E76C0000202109000000030050CD
:100C08008000020014ED00E02DE9F843224F067938
:100C18004FF02C0909FB067480466569002D37D111
:100C28006261A16025624FF48E71006884F82850D3
:100C3800FFF724FED8F80000012383602146FFF760
:100C480025FE6368A1462BBBD8F80050226A636969
:100C58009A4212D3D8F80030D3F81C21002AFBD0CE
:100C68000122DA6000202C2303FB0676002373613F
:100C7800BDE8F88394F8283043B9D5F81C31002B27
:100C8800F8D049462846FFF701FEDFE70F20EAE7DC
:100C98001120EDE72846EBE76C0000200379044AB1
:100CA8002C2101FB03235869003018BF012070472D
:100CB8006C0000202DE9F843384E05792C2303FBFE
:100CC800056307465C6824B103684FF40170C3F8F4
:100CD80008032C2303FB0563986950B1D8690028E1
:100CE8003ED024B13B684FF40172C3F804231120AD
:100CF80034E09A61D9605862D8612C2303FB0563FC
:100D080093F829301BB910B93846FFF7CEFD4FF0DC
:100D18002C0909FB05683868D8F80430002B34D151
:100D28004FF4A271FFF7AAFDC1463868D0F8243104
:100D3800D0F80821D0F84441B2B90CB9002BF4D04E
:100D48002C2202FB05650022AA611BBB24BB95F877
:100D580029103B680122B1B11A600020BDE8F88370
:100D68001961DA610120C8E7002BE9D1002CE7D12D
:100D78004946FFF7AAFDD8F82430D8F818209A4237
:100D8800D3D82346DCE75A60E7E74FF40173C0F88D
:100D98000433E2E70320E1E70F20DFE76C000020DF
:100DA8000023435082B043580193019B02B070471F
:100DB8001FB501238DF80030054B8DF8080001910F
:100DC8006846D3E90012904705B05DF804FB00BF00
:100DD800980000207FB5384AD2F82461002E49D007
:100DE80010464FF49271FFF7DBFF02238DF80030B5
:100DF800D2F88034C2F880340393D2F83C358DF8A9
:100E080008302E4BDA6801920022C3E906226846B0
:100E1800D3E900129047284AD2F8443173B14FF40D
:100E2800A2711046FFF7BCFF244B996931B100212C
:100E38009961D2F83C05D968FFF7BAFF1E4AD2F883
:100E48002031ABB14FF490711046FFF7A9FF1B4B4F
:100E5800596969B1D2F84C158DF8081000229968C3
:100E68008DF8002001915A616846D3E90012904735
:100E780004B070BDD2F81031002BCCD04FF488717B
:100E88001046FFF78DFF0D4BD2F83C059969884253
:100E9800C1D1DC69D96864B1D2F8005225F02005C7
:100EA800C2F800521A699C61DA60DE61FFF780FFC0
:100EB800B1E79C61FAE700BF0020004098000020DD
:100EC8002DE9F8436A4B06799146242202FB063243
:100ED800044692F820200D469846002A40F0C48027
:100EE80064490068FFF7B0FC0746002840F0BE8060
:100EF8002868421C10D01F2887BF00F01F035E4AD5
:100F080003464FF0A0420121994003F5E073C2F86F
:100F18000815032142F8231069684B1C0DD01F29BE
:100F28008BBF01F01F030B46534A4FF0A04203F555
:100F3800E0734FF0000C42F823C02368AA6995F8C3
:100F480014C0C3F824256A7DBCF1010F4CEA0202E3
:100F5800C3F86C25C3F80C05C3F814152BD1A96880
:100F6800481C0DD01F298BBF01F01F020A464248BA
:100F78004FF0A04002F5E0724FF0000C40F822C09C
:100F8800E868421C13D01F2887BF00F01F0C3A4A9C
:100F980084464FF0A0424FF0010E0EFA0CFE0CF5FD
:100FA800E07CC2F808E54FF0030E42F82CE0C3F8E5
:100FB8000805C3F810152423734308EB0302C2F88D
:100FC80004902A6948F80320B9F1000F3BD04FF488
:100FD800887120682D7FFFF7E3FE4FF49071206839
:100FE800FFF7DEFE4FF492712068FFF7D9FE206804
:100FF8004FF4A271FFF7D4FE2268204BC2F80433E5
:10100800120B53B2002BA8BF03F160404FEA5313F1
:101018004FEA4511BABF1A4802F00F0500F56140C2
:101028004FEA8303C9B203F16043B4BF415580F866
:10103800001303F5614302F01F02012101FA02F2D5
:10104800C3F880211A6023680822C3F800252423E6
:1010580003FB06830022C3E906225A61012283F8B2
:1010680020203846BDE8F8830827FAE71127F8E773
:1010780098000020DD0D000000030050100302005E
:1010880014ED00E001F06043B3F1005F2DE9F04199
:10109800074632D11C4B0679242505FB06359846B0
:1010A8006C6964BB6A61A96000684FF49071FFF7CE
:1010B80077FE4FF4AC713868FFF772FE3B686A69D7
:1010C800A968C3F84415C3F8482501229A606A68DC
:1010D800BAB9D3F82011D3F8582149B9002AF8D061
:1010E8000F20242303FB068600237361BDE8F081EB
:1010F800002A14BF0F200020F3E71020F6E7112084
:10110800F4E72046F2E700BF980000200379044A7C
:10111800242101FB03235869003018BF01207047C0
:1011280098000020F8B501F06043B3F1005F044671
:101138000F465ED10379304D242101FB03514868E5
:1011480020B121684FF40476C1F80863242101FB1B
:1011580003539E6956B1D969002939D020B1236853
:101168004FF40472C3F80423112030E09A61DF6061
:10117800DE614FF488712068FFF712FE4FF4A27108
:101188002068FFF70DFE2368C3F83475C3F83825C7
:1011980016BB01221A602279242101FB02514968F9
:1011A80009BBD3F81041D3F84411D3F8240114B97A
:1011B80009B90028F5D0242303FB025500239842DF
:1011C80014BF032018469942AB6118BF0F20F8BD21
:1011D8001F61DA610126CCE7D3F8002242F0200231
:1011E800C3F80022D7E74FF40472C3F804230020A1
:1011F800EDE71020EBE700BF980000200378022BF2
:1012080002D14068FFF7E4B8012BFAD0704700001C
:10121800F0B52E4D8BB00120FFF77FFA0FCD04AC4F
:101228000FC495E803002A4B2A4A00934FF48073B1
:1012380084E80300CDE902230193274A072369467E
:1012480004A8FFF79BF908B1FFF7C2F800F09AF974
:101258000646B0BB0546044600F0E2F90746684674
:10126800FFF7E4F90028F7D19DF800301CB91D02FA
:101278003E460124F0E706F11502BA4202D21D02E9
:101288003E46E9E71D4305F00303C5F38502C5F3B0
:101298000521C5F38F3000F0CBFA04A800F08AFAD4
:1012A80004460028D8D09DF81100FFF7D5F900288A
:1012B800F9D19DF81000FFF7CFF90028F9D10446BD
:1012C800CAE74FF0FF300BB0F0BD00BF641F00004D
:1012D800BC000020BC010020051200000C4B0322BA
:1012E800C3F80825A3F5F0330022C3F80022C3F899
:1012F800102101221A61D3F81021002AFBD0002204
:10130800C3F810215A601A60024B1A80704700BF58
:1013180000F00140D803002008B500F03DFC0B4B5D
:1013280001210022C3F80815C3F81025C3F81425B5
:10133800FFF7D4FF064B1970064B1B782BB1064BF1
:101348004FF400721A60C3F8802108BD00F0014014
:10135800DA030020BC02002000E100E038B51E4C92
:101368001E4D2178286800F021FC20B11C4B012279
:101378001A80042038BDFFF7B1FF1A4B2A78C3F84A
:101388000C252178C3F81015D3F8242522F0FF0284
:10139800C3F82425D3F8242542F07102C3F8242584
:1013A800114AC3F81C250122C3F8302540F2031264
:1013B800C3F82C05C3F834250C4A127803391206F1
:1013C800012988BF42F0C14242F48472C3F814254F
:1013D800074AC3F81825CDE714000020DC030020D5
:1013E800C40200200010004000294176C7020020F6
:1013F800FF0003000F49104A0B6823F0004398B11F
:1014080023F0FF0343F0004343F07D030B601368B0
:1014180023F0004323F0700343F0004343F06003DC
:101428001360064B187070470B60136823F0004375
:10143800F6E700BF3C1700407C170040DB030020A4
:1014480038B5044600F0A8FB194B40F25B62C3F8BC
:101458003825184AC3F83C25174A12685200023248
:10146800C3F80825154AC3F804250022C3F800214B
:101478000322C3F800221D46114A54B1137813B150
:101488000120FFF7B7FF0023C5F80C3101236B607B
:1014980038BD0C490978C3F80C151378002BF7D020
:1014A800094B0122DA605A60C3F84041F0E700BFF7
:1014B8000010004055555500D4030020D0020020EC
:1014C800BC020020DC03002000900040024A0123F7
:1014D800136042F8083C704740100040064B002259
:1014E800C3F81C2101225A61D3F81C21002AFBD021
:1014F800D3F84805C0B27047001000401E4BD3F81F
:10150800403110B5ABB1FFF7E9FF1C4B1B782BB38B
:101518005F2802D90020FFF76DFF174B42F21072C7
:10152800C3F84025002101225A60DA60C3F840114F
:101538001A60114CD4F8443163B1FFF7CFFF5F282C
:101548008CBF00200120FFF755FF0023C4F8443565
:10155800C4F84431BDE81040FFF7B8BF084B1B681A
:101568009AB20F2A04D9B3F5003F01D20120D2E77D
:101578005E28FBD9D1E700BF00900040DB030020C4
:101588007415004038B54FF080430022C3F800219D
:1015980001221A60D3F80021002AFBD01A4B1B68DD
:1015A800002201244FF480315C600425DC60C3F81C
:1015B8000425C3F84021C3F84421C3F84821C3F8DF
:1015C8004C21C3F8041340F6C411C3F80042C3F811
:1015D8001055C3F840154FF48271C3F844151C60C8
:1015E8000A4B1A60FFF7BAFE58B9094B094A187036
:1015F800094B1C70094B1860136943F01003136101
:1016080038BD2846FCE700BF18000020C0020020B3
:10161800C602002000ED00E0DA030020C802002026
:10162800564A136970B543F01003554C554D136174
:10163800D4F80C31002B44D02B78534A00210220D7
:10164800042BC4F80C11C2F8800160D14F4B1B78F1
:101658000122626073B14E4B42F21070C3F840052C
:101668004FF4FA70C3F84405DA60C3F84011C3F8C0
:1016780044111A60D4F80034012B1CD1454A46495C
:1016880012780B78D01E012803F00F030E4601D8FC
:10169800022B10D8053A012A01D8032B0BD84A7817
:1016A800002B3DD13D493E4800F0B4FB18B93D4AF6
:1016B80013880133138040F201120021364800F0EC
:1016C80008FC2B78042B22D1D4F804312BB12F4BF2
:1016D8001B7813B12E4B01221A61D4F80031B3B133
:1016E8002A4B1B789BB1FFF7F9FE5F2802D900202F
:1016F800FFF780FE264B42F21072C3F84025002106
:101708000122DA60C3F840111A60FFF7DFFE264BAA
:101718001B68D3F84021C2B10022C3F8402187E7F3
:10172800012B0ED0022B0ED0032BC4D1FF21002396
:10173800D8B28242BBD90133F01840788842F7D03A
:10174800B9E70F21F3E75521F1E7D3F84411002950
:101758003FF46EAFC3F84421144B93F900300121D4
:101768005A0903F01F0301FA03F36032064941F8EE
:1017780022300F4B18680130186070BD00ED00E092
:1017880000100040DA03002000E100E0BC02002065
:101798000090004014000020D00200207C1F0000B0
:1017A800D2020020D80300201800002015000020D5
:1017B800C0020020044B00211A781970034B1B88C3
:1017C80003601046704700BFC6020020C402002014
:1017D8000B4B1B7810F0300F10B544B218BF64F0F3
:1017E8003F04012B01D9002010BD064B2046197873
:1017F80000F0DCF90028F6D1034B01201C60F3E768
:10180800DA03002014000020DC030020054B1B78BD
:10181800012B024603D80449044800F0E3B900202C
:10182800704700BFDA0300201500002018000020D0
:101838009C46B34B2DE9F74F8146B24EB2480D4650
:1018480014461A680560307804F03F0102F0C002BF
:101858000A430338AD491A600128C1F800C0984608
:1018680004D8BCF1030F04BFFF230B60A84BA94F9A
:10187800DFF8D0B20120187038780023ABF80030B8
:10188800DA46002800F08481B9F1000F40F0A38007
:10189800FFF742FDC5B924B10123AAF8003004249A
:1018A8000EE0032333709C4B9C4AC8F800401C7020
:1018B800136823F000431360536823F00043536018
:1018C800204603B0BDE8F08F012D06D1032CE3D8E4
:1018D800A401C8F800400024F2E7022D5BD1013CC6
:1018E800032CD9D8DFE804F0021D345503233370E4
:1018F800894B8A4A00241C70136823F00043136044
:10190800536823F0004353602046FFF773FD844B70
:1019180001221A61834B1C7003B0BDE8F04FFFF73A
:101928001DBD042333707C4B7C4A01241C70136852
:1019380023F000431360536823F0004353600020F2
:10194800FFF758FD764B1C61764B00221A70E3E7CF
:1019580005233370704B03221A70704A136843F0E2
:1019680000431360136823F0FF0343F05C03136024
:10197800536823F0004323F47F4343F0004343F4C8
:1019880044435360684B1B68002BC5D1654B01224B
:10199800DCE70623DDE7032D02D1012C9BD97BE789
:1019A800042D06D1002C7FF477AF0623ABF8003066
:1019B80086E7052D7FF470AF032C3FF66DAFDFE8A7
:1019C80004F0020702074FF4FF73AAF8003082E719
:1019D80044F29023F9E7B9F1030F12D1012804D199
:1019E8000123AAF8003002246AE7504A01931288BA
:1019F8006FEA42426FEA5242ABF80020FFF78CFCD4
:101A080069E70128ECD1BCF1030F05D0272D03D9D4
:101A1800ABF80000044653E7444B4FF0000BB9F114
:101A2800010FA3F800B00BD140F20112594640480B
:101A380000F04FFA4846FFF703FD04233B704AE7DE
:101A4800B9F1020F7FF447AF0B683948022B427097
:101A58004DD009D8A3B1012B7FF41EAF00F8023B8B
:101A68000F2100F036FA10E0032B44D0FF2B7FF44F
:101A780013AF032C3FF62FAFDFE804F066667279E8
:101A880000F8023B2B4900F0FBF90020FFF7D8FCD7
:101A98003278294BD8F800401968042A6BD0032AF9
:101AA8006BD0052A6BD0062A14BF00204FF4E770CC
:101AB800052A4FEAC40365D1A3010344042A08BFD9
:101AC8005B0840F27122F9339A4202F271205DD329
:101AD8001A4BC1F840251A4A01F5A071C3F8101530
:101AE800C3F814250122C3F804250223A6E700F849
:101AF800029B5521B5E7042300F8023BFF21B0E71C
:101B0800C802002014000020D4030020CC020020CA
:101B1800C6020020DA030020C70200203C1700405C
:101B280000900040BC02002088170040D803002025
:101B3800D00200207C1F00001800002000F00140A7
:101B480000100040C40200200020FFF779FC00F0DC
:101B580025F8104B0122C3F800221A6003236DE711
:101B68002846FFF735FE00287FF4B5AE94E62846F0
:101B7800FFF74CFEF7E758209AE7502098E74FF414
:101B8800347095E7062A08BF230196E702469BE7CB
:101B9800052495E60010004070470000024B4FF402
:101BA8000072C3F85026704700100040C3B29A1E56
:101BB800062A0CD95BB1EC3B132B04D8084A22FA4D
:101BC80003F3DB0703D400F0DF00D82805D103397D
:101BD800032994BF0020042070470420704700BFE9
:101BE800110109002AB9104B036008230B7001206A
:101BF8007047012A03D10D4B03600923F6E7022A37
:101C080003D10B4B03600A23F0E7032A03D1094BE6
:101C180003601A23EAE7042A03D1074B03601B2356
:101C2800E4E70020704700BF0080004000900040BB
:101C380000A0004000A0014000B00140054B1B6817
:101C4800082B01BF044B1868B0FA80F0400918BF90
:101C580000207047300100103401001008B54FF023
:101C680080430022C3F80C21C3F81021C3F838259B
:101C78004FF0805203F54043D2F80414C3F82015FE
:101C8800D2F80814C3F82415D2F80C14C3F8281590
:101C9800D2F81014C3F82C15D2F81414C3F8301560
:101CA800D2F81814C3F83415D2F81C14C3F8401528
:101CB800D2F82014C3F84415D2F82414C3F84815F0
:101CC800D2F82814C3F84C15D2F82C14C3F85015C0
:101CD800D2F83014C3F85415D2F83414C3F8601588
:101CE800D2F83814C3F86415D2F83C14C3F8681550
:101CF800D2F84014C3F86C15D2F84424C3F8702500
:101D0800FFF79CFF10B1384B384A1A60FFF796FF6F
:101D180018B1374BFB22C3F81825FFF78FFF48B1DE
:101D28003449354B0A681B6822F00F0203F00F0391
:101D380013430B60FFF782FF18B1304B4FF400726A
:101D48001A604FF08043D3F80024D20744BF6FF0E5
:101D58000102C3F800242A4AD2F8883043F47003F9
:101D6800C2F88830BFF34F8FBFF36F8F4FF0102347
:101D7800D3F80022002A03DBD3F80432002B2FDA31
:101D8800204B0122C3F80425D3F80024002AFBD0F5
:101D98004FF010221221C2F80012D3F80024002AB2
:101DA800FBD04FF010231222C3F80422154B1A4619
:101DB800D3F800140029FBD00021C3F80415D2F889
:101DC8000034002BFBD0BFF34F8F0D490E4BCA6870
:101DD80002F4E0621343CB60BFF34F8F00BFFDE70F
:101DE8000A4B0B4A1A6008BD8C5600404881030014
:101DF80000F00040E40E00405802001040960240F7
:101E080000ED00E000E001400400FA051C0000209D
:101E18000090D00392B370B4134640EA010212F066
:101E2800030F17D05A1E10D004780B789C420CD19F
:101E3800431C4C1C024418462146934205D00133EA
:101E4800013406780D78AE42F5D000780B78C01AC8
:101E580070BC70470F2BE5D904680A689442E1D139
:101E6800041D0A1D20461146043B042BDAD904340C
:101E7800043206680D68AE42F4D0D3E700207047FC
:101E8800844640EA010313F0030F18D18446202A40
:101E98000BD32DE9F007B1E8F807A0E8F807A2F19D
:101EA8002002202AF7D2BDE8F007042A07D351F808
:101EB800043B40F8043BA2F10402042AF7D2002AAA
:101EC80005D011F8013B00F8013B013AF9D1604611
:101ED80070478446002A2DD010F0030F04D000F874
:101EE800011B013A26D0F7E7C9B241EA012141EACC
:101EF8000141202A12D3A2F120022DE9F0030B465A
:101F08000C460D460E460F4688468946A0E8FA0359
:101F1800203AFBD2BDE8F00320320BD0042A05D3C7
:101F280040F8041B043A05D0042AF9D200F8011B32
:081F3800013AFBD1604670473D
:101F4000FFFFFFFFFFFFFFFFFFFFFFFFFFFFFFFFA1
:101F500000000000000000000000D60106010000A3
:101F60000D0E0F1008000000060000000500000024
:101F7000070000000000000000A04E00FFC1FBE8C9
:101F80004C90728BE7B3518963AB232302841872A0
:101F9000AA612F3B51A8E53749FBC9CA0C18532C3D
:101FA000FD45E39AE6F15DB0B61BB4BE2A50EAE9FE
:101FB0000E9C4B5E5724CCA1B759B887FFE07D74C7
:101FC0002648B9C5F3D9A8C4B1D5911101420C393D
:101FD000D5B0979D28D4F29BA4FD6465068C299604
:101FE000FEA2714DF3F82E58DB0D5A5F1528F574DB
:101FF00007CE25AF2B12E6D0DB2CDCC37FF03E3AB8
:1020000013A4DCE2F96C54E2D8EAC8880021869C6B
:102010006AD8CB4E146AF94DD27EB23203C6144B45
:102020007FD1B8A6797C17ACED06ADAF0A947ABA29
:1020300003E792D7150973E86D16EEE13F781F9D0F
:1020400009526EF17C362A716C7564448010434EDF
:1020500035EC65270AB5FC26693F599901638AA5C5
:10206000BF685CD33CBE0BD67683D657054A3DDDB0
:0B2070008173C9EB8A8439F4360BF74A
:10207C000000000000200040000000000020004094
:10208C000000000003080000008000400090D00316
:1060000064746D2D66772D312E302E300000000027
:04000003000003797D
:00000001FF
